:0F00000001027400F580F590F5A0F5B09000AC0A
:10000F007F1B7E1EEFF580EEF5A011717F1B7E1D0D
:10001F00EFF580EEF5A0118B7F1B7EF3EFF580EEF1
:10002F00F5A011717F1B7E2BEFF580EEF5A0118BE4
:10003F007F1E7E1BEFF580EEF5A011717F1D7E1BDD
:10004F00EFF580EEF5A0118B7FF37EDBEFF580EE01
:10005F00F5A011717FEB7EDBEFF580EEF5A0118B34
:10006F00010F75F009E5F093F59011A715F0E5F084
:0F007F0093F59011A7B43FF47590002275F00926
:10008E00E5F093F5B011A7019715F0E5F093F5B0F3
:10009E0011A7B43FF475B000227909D9FE223F06AC
:0E00AE005B4F666D7D077F6F777C395E7971E1
:00000001FF
